{
  "_format": "hh-sol-artifact-1",
  "contractName": "PlatziPunksDNA",
  "sourceName": "contracts/PlatziPunksDNA.sol",
  "abi": [
    {
      "inputs": [
        {
          "internalType": "uint256",
          "name": "_tokenId",
          "type": "uint256"
        },
        {
          "internalType": "address",
          "name": "_minter",
          "type": "address"
        }
      ],
      "name": "deterministicPseudoRandomDNA",
      "outputs": [
        {
          "internalType": "uint256",
          "name": "",
          "type": "uint256"
        }
      ],
      "stateMutability": "pure",
      "type": "function"
    },
    {
      "inputs": [
        {
          "internalType": "uint256",
          "name": "_dna",
          "type": "uint256"
        }
      ],
      "name": "getAccessoriesType",
      "outputs": [
        {
          "internalType": "string",
          "name": "",
          "type": "string"
        }
      ],
      "stateMutability": "view",
      "type": "function"
    },
    {
      "inputs": [
        {
          "internalType": "uint256",
          "name": "_dna",
          "type": "uint256"
        }
      ],
      "name": "getClotheColor",
      "outputs": [
        {
          "internalType": "string",
          "name": "",
          "type": "string"
        }
      ],
      "stateMutability": "view",
      "type": "function"
    },
    {
      "inputs": [
        {
          "internalType": "uint256",
          "name": "_dna",
          "type": "uint256"
        }
      ],
      "name": "getClotheType",
      "outputs": [
        {
          "internalType": "string",
          "name": "",
          "type": "string"
        }
      ],
      "stateMutability": "view",
      "type": "function"
    },
    {
      "inputs": [
        {
          "internalType": "uint256",
          "name": "_dna",
          "type": "uint256"
        }
      ],
      "name": "getEyeBrowType",
      "outputs": [
        {
          "internalType": "string",
          "name": "",
          "type": "string"
        }
      ],
      "stateMutability": "view",
      "type": "function"
    },
    {
      "inputs": [
        {
          "internalType": "uint256",
          "name": "_dna",
          "type": "uint256"
        }
      ],
      "name": "getEyeType",
      "outputs": [
        {
          "internalType": "string",
          "name": "",
          "type": "string"
        }
      ],
      "stateMutability": "view",
      "type": "function"
    },
    {
      "inputs": [
        {
          "internalType": "uint256",
          "name": "_dna",
          "type": "uint256"
        }
      ],
      "name": "getFacialHairColor",
      "outputs": [
        {
          "internalType": "string",
          "name": "",
          "type": "string"
        }
      ],
      "stateMutability": "view",
      "type": "function"
    },
    {
      "inputs": [
        {
          "internalType": "uint256",
          "name": "_dna",
          "type": "uint256"
        }
      ],
      "name": "getFacialHairType",
      "outputs": [
        {
          "internalType": "string",
          "name": "",
          "type": "string"
        }
      ],
      "stateMutability": "view",
      "type": "function"
    },
    {
      "inputs": [
        {
          "internalType": "uint256",
          "name": "_dna",
          "type": "uint256"
        }
      ],
      "name": "getGraphicType",
      "outputs": [
        {
          "internalType": "string",
          "name": "",
          "type": "string"
        }
      ],
      "stateMutability": "view",
      "type": "function"
    },
    {
      "inputs": [
        {
          "internalType": "uint256",
          "name": "_dna",
          "type": "uint256"
        }
      ],
      "name": "getHairColor",
      "outputs": [
        {
          "internalType": "string",
          "name": "",
          "type": "string"
        }
      ],
      "stateMutability": "view",
      "type": "function"
    },
    {
      "inputs": [
        {
          "internalType": "uint256",
          "name": "_dna",
          "type": "uint256"
        }
      ],
      "name": "getHatColor",
      "outputs": [
        {
          "internalType": "string",
          "name": "",
          "type": "string"
        }
      ],
      "stateMutability": "view",
      "type": "function"
    },
    {
      "inputs": [
        {
          "internalType": "uint256",
          "name": "_dna",
          "type": "uint256"
        }
      ],
      "name": "getMouthType",
      "outputs": [
        {
          "internalType": "string",
          "name": "",
          "type": "string"
        }
      ],
      "stateMutability": "view",
      "type": "function"
    },
    {
      "inputs": [
        {
          "internalType": "uint256",
          "name": "_dna",
          "type": "uint256"
        }
      ],
      "name": "getSkinColor",
      "outputs": [
        {
          "internalType": "string",
          "name": "",
          "type": "string"
        }
      ],
      "stateMutability": "view",
      "type": "function"
    },
    {
      "inputs": [
        {
          "internalType": "uint256",
          "name": "_dna",
          "type": "uint256"
        }
      ],
      "name": "getTopType",
      "outputs": [
        {
          "internalType": "string",
          "name": "",
          "type": "string"
        }
      ],
      "stateMutability": "view",
      "type": "function"
    }
  ],
  "bytecode": "0x60806040526040518060e001604052806040518060400160405280600581526020017f426c616e6b00000000000000000000000000000000000000000000000000000081525081526020016040518060400160405280600481526020017f4b7572740000000000000000000000000000000000000000000000000000000081525081526020016040518060400160405280600e81526020017f507265736372697074696f6e303100000000000000000000000000000000000081525081526020016040518060400160405280600e81526020017f507265736372697074696f6e303200000000000000000000000000000000000081525081526020016040518060400160405280600581526020017f526f756e6400000000000000000000000000000000000000000000000000000081525081526020016040518060400160405280600a81526020017f53756e676c61737365730000000000000000000000000000000000000000000081525081526020016040518060400160405280600981526020017f57617966617265727300000000000000000000000000000000000000000000008152508152506000906007620001bc92919062002633565b50604051806101e001604052806040518060400160405280600581526020017f426c61636b00000000000000000000000000000000000000000000000000000081525081526020016040518060400160405280600681526020017f426c75653031000000000000000000000000000000000000000000000000000081525081526020016040518060400160405280600681526020017f426c75653032000000000000000000000000000000000000000000000000000081525081526020016040518060400160405280600681526020017f426c75653033000000000000000000000000000000000000000000000000000081525081526020016040518060400160405280600681526020017f477261793031000000000000000000000000000000000000000000000000000081525081526020016040518060400160405280600681526020017f477261793032000000000000000000000000000000000000000000000000000081525081526020016040518060400160405280600781526020017f486561746865720000000000000000000000000000000000000000000000000081525081526020016040518060400160405280600a81526020017f50617374656c426c75650000000000000000000000000000000000000000000081525081526020016040518060400160405280600b81526020017f50617374656c477265656e00000000000000000000000000000000000000000081525081526020016040518060400160405280600c81526020017f50617374656c4f72616e6765000000000000000000000000000000000000000081525081526020016040518060400160405280600981526020017f50617374656c526564000000000000000000000000000000000000000000000081525081526020016040518060400160405280600c81526020017f50617374656c59656c6c6f77000000000000000000000000000000000000000081525081526020016040518060400160405280600481526020017f50696e6b0000000000000000000000000000000000000000000000000000000081525081526020016040518060400160405280600381526020017f526564000000000000000000000000000000000000000000000000000000000081525081526020016040518060400160405280600581526020017f5768697465000000000000000000000000000000000000000000000000000000815250815250600190600f6200054e92919062002693565b506040518061012001604052806040518060400160405280600b81526020017f426c617a6572536869727400000000000000000000000000000000000000000081525081526020016040518060400160405280600d81526020017f426c617a6572537765617465720000000000000000000000000000000000000081525081526020016040518060400160405280600d81526020017f436f6c6c6172537765617465720000000000000000000000000000000000000081525081526020016040518060400160405280600c81526020017f477261706869635368697274000000000000000000000000000000000000000081525081526020016040518060400160405280600681526020017f486f6f646965000000000000000000000000000000000000000000000000000081525081526020016040518060400160405280600781526020017f4f766572616c6c0000000000000000000000000000000000000000000000000081525081526020016040518060400160405280600d81526020017f5368697274437265774e65636b0000000000000000000000000000000000000081525081526020016040518060400160405280600e81526020017f536869727453636f6f704e65636b00000000000000000000000000000000000081525081526020016040518060400160405280600a81526020017f5368697274564e65636b0000000000000000000000000000000000000000000081525081525060029060096200077e929190620026f3565b506040518061018001604052806040518060400160405280600581526020017f436c6f736500000000000000000000000000000000000000000000000000000081525081526020016040518060400160405280600381526020017f437279000000000000000000000000000000000000000000000000000000000081525081526020016040518060400160405280600781526020017f44656661756c740000000000000000000000000000000000000000000000000081525081526020016040518060400160405280600581526020017f44697a7a7900000000000000000000000000000000000000000000000000000081525081526020016040518060400160405280600781526020017f457965526f6c6c0000000000000000000000000000000000000000000000000081525081526020016040518060400160405280600581526020017f486170707900000000000000000000000000000000000000000000000000000081525081526020016040518060400160405280600681526020017f486561727473000000000000000000000000000000000000000000000000000081525081526020016040518060400160405280600481526020017f536964650000000000000000000000000000000000000000000000000000000081525081526020016040518060400160405280600681526020017f537175696e74000000000000000000000000000000000000000000000000000081525081526020016040518060400160405280600981526020017f537572707269736564000000000000000000000000000000000000000000000081525081526020016040518060400160405280600481526020017f57696e6b0000000000000000000000000000000000000000000000000000000081525081526020016040518060400160405280600981526020017f57696e6b5761636b790000000000000000000000000000000000000000000000815250815250600390600c62000a5f92919062002753565b506040518061018001604052806040518060400160405280600581526020017f416e67727900000000000000000000000000000000000000000000000000000081525081526020016040518060400160405280600c81526020017f416e6772794e61747572616c000000000000000000000000000000000000000081525081526020016040518060400160405280600781526020017f44656661756c740000000000000000000000000000000000000000000000000081525081526020016040518060400160405280600e81526020017f44656661756c744e61747572616c00000000000000000000000000000000000081525081526020016040518060400160405280600b81526020017f466c61744e61747572616c00000000000000000000000000000000000000000081525081526020016040518060400160405280600d81526020017f526169736564457863697465640000000000000000000000000000000000000081525081526020016040518060400160405280601481526020017f526169736564457863697465644e61747572616c00000000000000000000000081525081526020016040518060400160405280600c81526020017f536164436f6e6365726e6564000000000000000000000000000000000000000081525081526020016040518060400160405280601381526020017f536164436f6e6365726e65644e61747572616c0000000000000000000000000081525081526020016040518060400160405280600e81526020017f556e6962726f774e61747572616c00000000000000000000000000000000000081525081526020016040518060400160405280600681526020017f5570446f776e000000000000000000000000000000000000000000000000000081525081526020016040518060400160405280600d81526020017f5570446f776e4e61747572616c00000000000000000000000000000000000000815250815250600490600c62000d4092919062002753565b506040518061010001604052806040518060400160405280600681526020017f41756275726e000000000000000000000000000000000000000000000000000081525081526020016040518060400160405280600581526020017f426c61636b00000000000000000000000000000000000000000000000000000081525081526020016040518060400160405280600681526020017f426c6f6e6465000000000000000000000000000000000000000000000000000081525081526020016040518060400160405280600c81526020017f426c6f6e6465476f6c64656e000000000000000000000000000000000000000081525081526020016040518060400160405280600581526020017f42726f776e00000000000000000000000000000000000000000000000000000081525081526020016040518060400160405280600981526020017f42726f776e4461726b000000000000000000000000000000000000000000000081525081526020016040518060400160405280600881526020017f506c6174696e756d00000000000000000000000000000000000000000000000081525081526020016040518060400160405280600381526020017f5265640000000000000000000000000000000000000000000000000000000000815250815250600590600862000f35929190620027b3565b506040518060c001604052806040518060400160405280600581526020017f426c616e6b00000000000000000000000000000000000000000000000000000081525081526020016040518060400160405280600b81526020017f42656172644d656469756d00000000000000000000000000000000000000000081525081526020016040518060400160405280600a81526020017f42656172644c696768740000000000000000000000000000000000000000000081525081526020016040518060400160405280600d81526020017f42656172644d616765737469630000000000000000000000000000000000000081525081526020016040518060400160405280600e81526020017f4d6f7573746163686546616e637900000000000000000000000000000000000081525081526020016040518060400160405280600f81526020017f4d6f757374616368654d61676e756d00000000000000000000000000000000008152508152506006906006620010b392919062002813565b506040518061014001604052806040518060400160405280600681526020017f41756275726e000000000000000000000000000000000000000000000000000081525081526020016040518060400160405280600581526020017f426c61636b00000000000000000000000000000000000000000000000000000081525081526020016040518060400160405280600681526020017f426c6f6e6465000000000000000000000000000000000000000000000000000081525081526020016040518060400160405280600c81526020017f426c6f6e6465476f6c64656e000000000000000000000000000000000000000081525081526020016040518060400160405280600581526020017f42726f776e00000000000000000000000000000000000000000000000000000081525081526020016040518060400160405280600981526020017f42726f776e4461726b000000000000000000000000000000000000000000000081525081526020016040518060400160405280600a81526020017f50617374656c50696e6b0000000000000000000000000000000000000000000081525081526020016040518060400160405280600881526020017f506c6174696e756d00000000000000000000000000000000000000000000000081525081526020016040518060400160405280600381526020017f526564000000000000000000000000000000000000000000000000000000000081525081526020016040518060400160405280600a81526020017f53696c7665724772617900000000000000000000000000000000000000000000815250815250600790600a6200131e92919062002873565b50604051806101e001604052806040518060400160405280600581526020017f426c61636b00000000000000000000000000000000000000000000000000000081525081526020016040518060400160405280600681526020017f426c75653031000000000000000000000000000000000000000000000000000081525081526020016040518060400160405280600681526020017f426c75653032000000000000000000000000000000000000000000000000000081525081526020016040518060400160405280600681526020017f426c75653033000000000000000000000000000000000000000000000000000081525081526020016040518060400160405280600681526020017f477261793031000000000000000000000000000000000000000000000000000081525081526020016040518060400160405280600681526020017f477261793032000000000000000000000000000000000000000000000000000081525081526020016040518060400160405280600781526020017f486561746865720000000000000000000000000000000000000000000000000081525081526020016040518060400160405280600a81526020017f50617374656c426c75650000000000000000000000000000000000000000000081525081526020016040518060400160405280600b81526020017f50617374656c477265656e00000000000000000000000000000000000000000081525081526020016040518060400160405280600c81526020017f50617374656c4f72616e6765000000000000000000000000000000000000000081525081526020016040518060400160405280600981526020017f50617374656c526564000000000000000000000000000000000000000000000081525081526020016040518060400160405280600c81526020017f50617374656c59656c6c6f77000000000000000000000000000000000000000081525081526020016040518060400160405280600481526020017f50696e6b0000000000000000000000000000000000000000000000000000000081525081526020016040518060400160405280600381526020017f526564000000000000000000000000000000000000000000000000000000000081525081526020016040518060400160405280600581526020017f5768697465000000000000000000000000000000000000000000000000000000815250815250600890600f620016b092919062002693565b506040518061016001604052806040518060400160405280600381526020017f426174000000000000000000000000000000000000000000000000000000000081525081526020016040518060400160405280600681526020017f43756d626961000000000000000000000000000000000000000000000000000081525081526020016040518060400160405280600481526020017f446565720000000000000000000000000000000000000000000000000000000081525081526020016040518060400160405280600781526020017f4469616d6f6e640000000000000000000000000000000000000000000000000081525081526020016040518060400160405280600481526020017f486f6c610000000000000000000000000000000000000000000000000000000081525081526020016040518060400160405280600581526020017f50697a7a6100000000000000000000000000000000000000000000000000000081525081526020016040518060400160405280600681526020017f526573697374000000000000000000000000000000000000000000000000000081525081526020016040518060400160405280600681526020017f53656c656e61000000000000000000000000000000000000000000000000000081525081526020016040518060400160405280600481526020017f426561720000000000000000000000000000000000000000000000000000000081525081526020016040518060400160405280600c81526020017f536b756c6c4f75746c696e65000000000000000000000000000000000000000081525081526020016040518060400160405280600581526020017f536b756c6c000000000000000000000000000000000000000000000000000000815250815250600990600b62001956929190620028d3565b506040518061018001604052806040518060400160405280600981526020017f436f6e6365726e6564000000000000000000000000000000000000000000000081525081526020016040518060400160405280600781526020017f44656661756c740000000000000000000000000000000000000000000000000081525081526020016040518060400160405280600981526020017f44697362656c696566000000000000000000000000000000000000000000000081525081526020016040518060400160405280600681526020017f456174696e67000000000000000000000000000000000000000000000000000081525081526020016040518060400160405280600781526020017f4772696d6163650000000000000000000000000000000000000000000000000081525081526020016040518060400160405280600381526020017f536164000000000000000000000000000000000000000000000000000000000081525081526020016040518060400160405280600a81526020017f53637265616d4f70656e0000000000000000000000000000000000000000000081525081526020016040518060400160405280600781526020017f536572696f75730000000000000000000000000000000000000000000000000081525081526020016040518060400160405280600581526020017f536d696c6500000000000000000000000000000000000000000000000000000081525081526020016040518060400160405280600681526020017f546f6e677565000000000000000000000000000000000000000000000000000081525081526020016040518060400160405280600781526020017f5477696e6b6c650000000000000000000000000000000000000000000000000081525081526020016040518060400160405280600581526020017f566f6d6974000000000000000000000000000000000000000000000000000000815250815250600a90600c62001c3792919062002753565b506040518060e001604052806040518060400160405280600681526020017f54616e6e6564000000000000000000000000000000000000000000000000000081525081526020016040518060400160405280600681526020017f59656c6c6f77000000000000000000000000000000000000000000000000000081525081526020016040518060400160405280600481526020017f50616c650000000000000000000000000000000000000000000000000000000081525081526020016040518060400160405280600581526020017f4c6967687400000000000000000000000000000000000000000000000000000081525081526020016040518060400160405280600581526020017f42726f776e00000000000000000000000000000000000000000000000000000081525081526020016040518060400160405280600981526020017f4461726b42726f776e000000000000000000000000000000000000000000000081525081526020016040518060400160405280600581526020017f426c61636b000000000000000000000000000000000000000000000000000000815250815250600b90600762001df092919062002633565b506040518061046001604052806040518060400160405280600681526020017f4e6f48616972000000000000000000000000000000000000000000000000000081525081526020016040518060400160405280600881526020017f457965706174636800000000000000000000000000000000000000000000000081525081526020016040518060400160405280600381526020017f486174000000000000000000000000000000000000000000000000000000000081525081526020016040518060400160405280600581526020017f48696a616200000000000000000000000000000000000000000000000000000081525081526020016040518060400160405280600681526020017f54757262616e000000000000000000000000000000000000000000000000000081525081526020016040518060400160405280600a81526020017f57696e746572486174310000000000000000000000000000000000000000000081525081526020016040518060400160405280600a81526020017f57696e746572486174320000000000000000000000000000000000000000000081525081526020016040518060400160405280600a81526020017f57696e746572486174330000000000000000000000000000000000000000000081525081526020016040518060400160405280600a81526020017f57696e746572486174340000000000000000000000000000000000000000000081525081526020016040518060400160405280600f81526020017f4c6f6e674861697242696748616972000000000000000000000000000000000081525081526020016040518060400160405280600b81526020017f4c6f6e6748616972426f6200000000000000000000000000000000000000000081525081526020016040518060400160405280600b81526020017f4c6f6e674861697242756e00000000000000000000000000000000000000000081525081526020016040518060400160405280600d81526020017f4c6f6e67486169724375726c790000000000000000000000000000000000000081525081526020016040518060400160405280600d81526020017f4c6f6e674861697243757276790000000000000000000000000000000000000081525081526020016040518060400160405280600e81526020017f4c6f6e674861697244726561647300000000000000000000000000000000000081525081526020016040518060400160405280600d81526020017f4c6f6e674861697246726964610000000000000000000000000000000000000081525081526020016040518060400160405280600b81526020017f4c6f6e674861697246726f00000000000000000000000000000000000000000081525081526020016040518060400160405280600f81526020017f4c6f6e674861697246726f42616e64000000000000000000000000000000000081525081526020016040518060400160405280601281526020017f4c6f6e67486169724e6f74546f6f4c6f6e67000000000000000000000000000081525081526020016040518060400160405280601381526020017f4c6f6e674861697253686176656453696465730000000000000000000000000081525081526020016040518060400160405280601281526020017f4c6f6e67486169724d696157616c6c616365000000000000000000000000000081525081526020016040518060400160405280601081526020017f4c6f6e674861697253747261696768740000000000000000000000000000000081525081526020016040518060400160405280601181526020017f4c6f6e674861697253747261696768743200000000000000000000000000000081525081526020016040518060400160405280601681526020017f4c6f6e67486169725374726169676874537472616e640000000000000000000081525081526020016040518060400160405280601181526020017f53686f727448616972447265616473303100000000000000000000000000000081525081526020016040518060400160405280601181526020017f53686f727448616972447265616473303200000000000000000000000000000081525081526020016040518060400160405280601081526020017f53686f7274486169724672697a7a6c650000000000000000000000000000000081525081526020016040518060400160405280601581526020017f53686f7274486169725368616767794d756c6c6574000000000000000000000081525081526020016040518060400160405280601381526020017f53686f72744861697253686f72744375726c790000000000000000000000000081525081526020016040518060400160405280601281526020017f53686f72744861697253686f7274466c6174000000000000000000000000000081525081526020016040518060400160405280601381526020017f53686f72744861697253686f7274526f756e640000000000000000000000000081525081526020016040518060400160405280601381526020017f53686f72744861697253686f727457617665640000000000000000000000000081525081526020016040518060400160405280600e81526020017f53686f727448616972536964657300000000000000000000000000000000000081525081526020016040518060400160405280601281526020017f53686f727448616972546865436165736172000000000000000000000000000081525081526020016040518060400160405280601a81526020017f53686f7274486169725468654361657361725369646550617274000000000000815250815250600c9060236200261e92919062002933565b503480156200262c57600080fd5b5062002d81565b82805482825590600052602060002090810192821562002680579160200282015b828111156200267f5782518290816200266e919062002c9a565b509160200191906001019062002654565b5b5090506200268f919062002993565b5090565b828054828255906000526020600020908101928215620026e0579160200282015b82811115620026df578251829081620026ce919062002c9a565b5091602001919060010190620026b4565b5b509050620026ef919062002993565b5090565b82805482825590600052602060002090810192821562002740579160200282015b828111156200273f5782518290816200272e919062002c9a565b509160200191906001019062002714565b5b5090506200274f919062002993565b5090565b828054828255906000526020600020908101928215620027a0579160200282015b828111156200279f5782518290816200278e919062002c9a565b509160200191906001019062002774565b5b509050620027af919062002993565b5090565b82805482825590600052602060002090810192821562002800579160200282015b82811115620027ff578251829081620027ee919062002c9a565b5091602001919060010190620027d4565b5b5090506200280f919062002993565b5090565b82805482825590600052602060002090810192821562002860579160200282015b828111156200285f5782518290816200284e919062002c9a565b509160200191906001019062002834565b5b5090506200286f919062002993565b5090565b828054828255906000526020600020908101928215620028c0579160200282015b82811115620028bf578251829081620028ae919062002c9a565b509160200191906001019062002894565b5b509050620028cf919062002993565b5090565b82805482825590600052602060002090810192821562002920579160200282015b828111156200291f5782518290816200290e919062002c9a565b5091602001919060010190620028f4565b5b5090506200292f919062002993565b5090565b82805482825590600052602060002090810192821562002980579160200282015b828111156200297f5782518290816200296e919062002c9a565b509160200191906001019062002954565b5b5090506200298f919062002993565b5090565b5b80821115620029b75760008181620029ad9190620029bb565b5060010162002994565b5090565b508054620029c99062002a89565b6000825580601f10620029dd5750620029fe565b601f016020900490600052602060002090810190620029fd919062002a01565b5b50565b5b8082111562002a1c57600081600090555060010162002a02565b5090565b600081519050919050565b7f4e487b7100000000000000000000000000000000000000000000000000000000600052604160045260246000fd5b7f4e487b7100000000000000000000000000000000000000000000000000000000600052602260045260246000fd5b6000600282049050600182168062002aa257607f821691505b60208210810362002ab85762002ab762002a5a565b5b50919050565b60008190508160005260206000209050919050565b60006020601f8301049050919050565b600082821b905092915050565b60006008830262002b227fffffffffffffffffffffffffffffffffffffffffffffffffffffffffffffffff8262002ae3565b62002b2e868362002ae3565b95508019841693508086168417925050509392505050565b6000819050919050565b6000819050919050565b600062002b7b62002b7562002b6f8462002b46565b62002b50565b62002b46565b9050919050565b6000819050919050565b62002b978362002b5a565b62002baf62002ba68262002b82565b84845462002af0565b825550505050565b600090565b62002bc662002bb7565b62002bd381848462002b8c565b505050565b5b8181101562002bfb5762002bef60008262002bbc565b60018101905062002bd9565b5050565b601f82111562002c4a5762002c148162002abe565b62002c1f8462002ad3565b8101602085101562002c2f578190505b62002c4762002c3e8562002ad3565b83018262002bd8565b50505b505050565b600082821c905092915050565b600062002c6f6000198460080262002c4f565b1980831691505092915050565b600062002c8a838362002c5c565b9150826002028217905092915050565b62002ca58262002a20565b67ffffffffffffffff81111562002cc15762002cc062002a2b565b5b62002ccd825462002a89565b62002cda82828562002bff565b600060209050601f83116001811462002d12576000841562002cfd578287015190505b62002d09858262002c7c565b86555062002d79565b601f19841662002d228662002abe565b60005b8281101562002d4c5784890151825560018201915060208501945060208101905062002d25565b8683101562002d6c578489015162002d68601f89168262002c5c565b8355505b6001600288020188555050505b505050505050565b6114d58062002d916000396000f3fe608060405234801561001057600080fd5b50600436106100ea5760003560e01c80638602dd6a1161008c578063b70930de11610066578063b70930de146102cf578063c0496cf5146102ff578063cc4e56951461032f578063dac1419e1461035f576100ea565b80638602dd6a1461023f57806388ee2c161461026f578063a2ec3e9e1461029f576100ea565b806360d58aed116100c857806360d58aed1461017f57806373075aff146101af5780637ecaef06146101df57806384425a841461020f576100ea565b8063039984ba146100ef57806318a3c0d11461011f578063425d784f1461014f575b600080fd5b61010960048036038101906101049190610f37565b61038f565b6040516101169190610ff4565b60405180910390f35b61013960048036038101906101349190610f37565b610461565b6040516101469190610ff4565b60405180910390f35b61016960048036038101906101649190610f37565b610533565b6040516101769190610ff4565b60405180910390f35b61019960048036038101906101949190610f37565b610605565b6040516101a69190610ff4565b60405180910390f35b6101c960048036038101906101c49190610f37565b6106d7565b6040516101d69190610ff4565b60405180910390f35b6101f960048036038101906101f49190610f37565b6107a9565b6040516102069190610ff4565b60405180910390f35b61022960048036038101906102249190610f37565b61087b565b6040516102369190610ff4565b60405180910390f35b61025960048036038101906102549190610f37565b61094d565b6040516102669190610ff4565b60405180910390f35b61028960048036038101906102849190611074565b610a1f565b60405161029691906110c3565b60405180910390f35b6102b960048036038101906102b49190610f37565b610a85565b6040516102c69190610ff4565b60405180910390f35b6102e960048036038101906102e49190610f37565b610b57565b6040516102f69190610ff4565b60405180910390f35b61031960048036038101906103149190610f37565b610c29565b6040516103269190610ff4565b60405180910390f35b61034960048036038101906103449190610f37565b610cfb565b6040516103569190610ff4565b60405180910390f35b61037960048036038101906103749190610f37565b610dcd565b6040516103869190610ff4565b60405180910390f35b6060600061039e836008610e9f565b60ff16905060048080549050826103b5919061110d565b815481106103c6576103c561113e565b5b9060005260206000200180546103db9061119c565b80601f01602080910402602001604051908101604052809291908181526020018280546104079061119c565b80156104545780601f1061042957610100808354040283529160200191610454565b820191906000526020600020905b81548152906001019060200180831161043757829003601f168201915b5050505050915050919050565b60606000610470836004610e9f565b60ff1690506002808054905082610487919061110d565b815481106104985761049761113e565b5b9060005260206000200180546104ad9061119c565b80601f01602080910402602001604051908101604052809291908181526020018280546104d99061119c565b80156105265780601f106104fb57610100808354040283529160200191610526565b820191906000526020600020905b81548152906001019060200180831161050957829003601f168201915b5050505050915050919050565b60606000610542836014610e9f565b60ff169050600a808054905082610559919061110d565b8154811061056a5761056961113e565b5b90600052602060002001805461057f9061119c565b80601f01602080910402602001604051908101604052809291908181526020018280546105ab9061119c565b80156105f85780601f106105cd576101008083540402835291602001916105f8565b820191906000526020600020905b8154815290600101906020018083116105db57829003601f168201915b5050505050915050919050565b60606000610614836018610e9f565b60ff169050600c80805490508261062b919061110d565b8154811061063c5761063b61113e565b5b9060005260206000200180546106519061119c565b80601f016020809104026020016040519081016040528092919081815260200182805461067d9061119c565b80156106ca5780601f1061069f576101008083540402835291602001916106ca565b820191906000526020600020905b8154815290600101906020018083116106ad57829003601f168201915b5050505050915050919050565b606060006106e6836016610e9f565b60ff169050600b8080549050826106fd919061110d565b8154811061070e5761070d61113e565b5b9060005260206000200180546107239061119c565b80601f016020809104026020016040519081016040528092919081815260200182805461074f9061119c565b801561079c5780601f106107715761010080835404028352916020019161079c565b820191906000526020600020905b81548152906001019060200180831161077f57829003601f168201915b5050505050915050919050565b606060006107b8836000610e9f565b9050600080805490508260ff166107cf919061110d565b815481106107e0576107df61113e565b5b9060005260206000200180546107f59061119c565b80601f01602080910402602001604051908101604052809291908181526020018280546108219061119c565b801561086e5780601f106108435761010080835404028352916020019161086e565b820191906000526020600020905b81548152906001019060200180831161085157829003601f168201915b5050505050915050919050565b6060600061088a836006610e9f565b60ff16905060038080549050826108a1919061110d565b815481106108b2576108b161113e565b5b9060005260206000200180546108c79061119c565b80601f01602080910402602001604051908101604052809291908181526020018280546108f39061119c565b80156109405780601f1061091557610100808354040283529160200191610940565b820191906000526020600020905b81548152906001019060200180831161092357829003601f168201915b5050505050915050919050565b6060600061095c836012610e9f565b60ff1690506009808054905082610973919061110d565b815481106109845761098361113e565b5b9060005260206000200180546109999061119c565b80601f01602080910402602001604051908101604052809291908181526020018280546109c59061119c565b8015610a125780601f106109e757610100808354040283529160200191610a12565b820191906000526020600020905b8154815290600101906020018083116109f557829003601f168201915b5050505050915050919050565b6000808273ffffffffffffffffffffffffffffffffffffffff1684610a4491906111fc565b9050600081604051602001610a599190611251565b60405160208183030381529060405290506000818051906020012090508060001c935050505092915050565b60606000610a94836010610e9f565b60ff1690506008808054905082610aab919061110d565b81548110610abc57610abb61113e565b5b906000526020600020018054610ad19061119c565b80601f0160208091040260200160405190810160405280929190818152602001828054610afd9061119c565b8015610b4a5780601f10610b1f57610100808354040283529160200191610b4a565b820191906000526020600020905b815481529060010190602001808311610b2d57829003601f168201915b5050505050915050919050565b60606000610b6683600e610e9f565b60ff1690506007808054905082610b7d919061110d565b81548110610b8e57610b8d61113e565b5b906000526020600020018054610ba39061119c565b80601f0160208091040260200160405190810160405280929190818152602001828054610bcf9061119c565b8015610c1c5780601f10610bf157610100808354040283529160200191610c1c565b820191906000526020600020905b815481529060010190602001808311610bff57829003601f168201915b5050505050915050919050565b60606000610c38836002610e9f565b9050600180805490508260ff16610c4f919061110d565b81548110610c6057610c5f61113e565b5b906000526020600020018054610c759061119c565b80601f0160208091040260200160405190810160405280929190818152602001828054610ca19061119c565b8015610cee5780601f10610cc357610100808354040283529160200191610cee565b820191906000526020600020905b815481529060010190602001808311610cd157829003601f168201915b5050505050915050919050565b60606000610d0a83600a610e9f565b60ff1690506005808054905082610d21919061110d565b81548110610d3257610d3161113e565b5b906000526020600020018054610d479061119c565b80601f0160208091040260200160405190810160405280929190818152602001828054610d739061119c565b8015610dc05780601f10610d9557610100808354040283529160200191610dc0565b820191906000526020600020905b815481529060010190602001808311610da357829003601f168201915b5050505050915050919050565b60606000610ddc83600c610e9f565b60ff1690506006808054905082610df3919061110d565b81548110610e0457610e0361113e565b5b906000526020600020018054610e199061119c565b80601f0160208091040260200160405190810160405280929190818152602001828054610e459061119c565b8015610e925780601f10610e6757610100808354040283529160200191610e92565b820191906000526020600020905b815481529060010190602001808311610e7557829003601f168201915b5050505050915050919050565b600081600a610eae91906113ac565b6001610eba91906113f7565b600283610ec79190611439565b600a610ed391906113ac565b6001610edf91906113f7565b84610eea919061110d565b610ef4919061146e565b905092915050565b600080fd5b6000819050919050565b610f1481610f01565b8114610f1f57600080fd5b50565b600081359050610f3181610f0b565b92915050565b600060208284031215610f4d57610f4c610efc565b5b6000610f5b84828501610f22565b91505092915050565b600081519050919050565b600082825260208201905092915050565b60005b83811015610f9e578082015181840152602081019050610f83565b60008484015250505050565b6000601f19601f8301169050919050565b6000610fc682610f64565b610fd08185610f6f565b9350610fe0818560208601610f80565b610fe981610faa565b840191505092915050565b6000602082019050818103600083015261100e8184610fbb565b905092915050565b600073ffffffffffffffffffffffffffffffffffffffff82169050919050565b600061104182611016565b9050919050565b61105181611036565b811461105c57600080fd5b50565b60008135905061106e81611048565b92915050565b6000806040838503121561108b5761108a610efc565b5b600061109985828601610f22565b92505060206110aa8582860161105f565b9150509250929050565b6110bd81610f01565b82525050565b60006020820190506110d860008301846110b4565b92915050565b7f4e487b7100000000000000000000000000000000000000000000000000000000600052601260045260246000fd5b600061111882610f01565b915061112383610f01565b925082611133576111326110de565b5b828206905092915050565b7f4e487b7100000000000000000000000000000000000000000000000000000000600052603260045260246000fd5b7f4e487b7100000000000000000000000000000000000000000000000000000000600052602260045260246000fd5b600060028204905060018216806111b457607f821691505b6020821081036111c7576111c661116d565b5b50919050565b7f4e487b7100000000000000000000000000000000000000000000000000000000600052601160045260246000fd5b600061120782610f01565b915061121283610f01565b925082820190508082111561122a576112296111cd565b5b92915050565b6000819050919050565b61124b61124682610f01565b611230565b82525050565b600061125d828461123a565b60208201915081905092915050565b60008160011c9050919050565b6000808291508390505b60018511156112c35780860481111561129f5761129e6111cd565b5b60018516156112ae5780820291505b80810290506112bc8561126c565b9450611283565b94509492505050565b6000826112dc5760019050611398565b816112ea5760009050611398565b8160018114611300576002811461130a57611339565b6001915050611398565b60ff84111561131c5761131b6111cd565b5b8360020a915084821115611333576113326111cd565b5b50611398565b5060208310610133831016604e8410600b841016171561136e5782820a905083811115611369576113686111cd565b5b611398565b61137b8484846001611279565b92509050818404811115611392576113916111cd565b5b81810290505b9392505050565b600060ff82169050919050565b60006113b782610f01565b91506113c28361139f565b92506113ef7fffffffffffffffffffffffffffffffffffffffffffffffffffffffffffffffff84846112cc565b905092915050565b600061140282610f01565b915061140d83610f01565b925082820261141b81610f01565b91508282048414831517611432576114316111cd565b5b5092915050565b60006114448261139f565b915061144f8361139f565b9250828201905060ff811115611468576114676111cd565b5b92915050565b600061147982610f01565b915061148483610f01565b925082611494576114936110de565b5b82820490509291505056fea2646970667358221220bf864e87ea440e620a3d3dc315e91839558590608a4ad0e438ba4f0f95e71aa464736f6c63430008120033",
  "linkReferences": {},
  "deployedLinkReferences": {}
}